:10000000FDC0000020C100001EC100001CC1000096
:100010001AC1000018C1000016C1000014C1000080
:1000200012C1000010C100000EC100000CC1000090
:100030000AC1000008C1000006C1000004C10000A0
:10004000D1C7000000C10000FEC00000FCC00000DD
:10005000FAC00000F8C00000F6C00000F4C00000C4
:10006000F2C00000F0C00000EEC00000ECC00000D4
:10007000EAC00000E8C00000E6C00000E4C00000E4
:10008000E2C00000E0C00000DEC00000DCC00000F4
:10009000DAC00000D8C00000D6C00000D4C0000004
:1000A000D2C00000D0C00000CEC00000CCC0000014
:1000B000CAC00000C8C00000C6C00000C4C0000024
:1000C000C2C00000C0C00000BEC00000BCC0000034
:1000D000BAC00000B8C00000B6C00000B4C0000044
:1000E000B2C00000B0C00000AEC00000ACC0000054
:1000F000AAC00000A8C00000A6C00000A4C0000064
:10010000A2C00000A0C000009EC000009CC0000073
:100110009AC0000098C0000096C0000094C0000083
:1001200092C0000090C000008EC000008CC0000093
:100130008AC0000088C0000086C0000084C00000A3
:1001400082C0000080C000007EC000007CC00000B3
:100150007AC0000078C0000076C0000074C00000C3
:1001600072C0000070C000006EC000006CC00000D3
:100170006AC0000068C0000066C0000064C00000E3
:1001800062C0000060C000005EC000005CC00000F3
:100190005AC0000058C0000056C0000054C0000003
:1001A00052C0000050C000004EC000004CC0000013
:1001B0004AC0000048C0000046C0000044C0000023
:1001C00042C0000040C000003EC000003CC0000033
:1001D0003AC0000038C0000036C0000034C0000043
:1001E00032C0000030C000002EC000002CC0000053
:1001F0002AC0000028C0000026C0000011241FBE35
:10020000CFEFCDBFDFE3DEBF00E00CBF18BE19BEED
:100210001ABE1BBE11E2A0E0B0E2EAE3F6E100E0A4
:100220000BBF02C007900D92A035B107D9F71BBED6
:1002300021E2A0E5B1E201C01D92A63EB207E1F7BE
:1002400003D00C941B0BDCCECF92DF92EF920F9376
:100250001F93CF93DF931F921F92CDB7DEB7CAD003
:1002600060E070E086E090E268D6C12CD12CE12CF1
:1002700000E010E029E048E06BE070E2CE0101967A
:10028000B7D5C12CD12CE12C00E010E029E048E0EA
:1002900064E170E2CE010196ABD5C12CD12CE12CEA
:1002A00000E010E029E048E06EE170E2CE01019646
:1002B0009FD5C12CD12CE12C00E010E029E048E0D2
:1002C00068E270E2CE01019693D5C12CD12CE12CCD
:1002D00000E010E029E048E062E370E2CE01019620
:1002E00087D5C12CD12CE12C00E010E029E048E0BA
:1002F00065E470E2CE0101967BD5C12CD12CE12CB6
:1003000000E010E029E048E068E570E2CE010196E7
:100310006FD5C12CD12CE12C00E010E029E048E0A1
:100320006BE670E2CE01019663D5C12CD12CE12C95
:1003300000E010E029E048E068E870E2CE010196B4
:1003400057D5C12CD12CE12C00E010E029E048E089
:1003500066EA70E2CE0101964BD50F2EF2E3CF2E66
:10036000D12CF02DE12C00E010E021E048E064EC1D
:1003700070E2CE0101963CD50F2EF8E1CF2ED12CA4
:10038000F02DE12C00E016E022E048E06CED70E298
:10039000CE0101962DD50F2EF8E1CF2ED12CF02DC8
:1003A000E12C00E016E022E048E068EF70E2CE01C8
:1003B00001961ED50F2EF8E1CF2ED12CF02DE12C79
:1003C00000E016E022E048E064E171E2CE0101962F
:1003D0000FD5C12CD12CE12C00E216E02BE048E037
:1003E00060E371E2CE01019603D587E491E266D520
:1003F000A895FECFCF93DF93CDB7DEB7DF91CF9136
:1004000008950F931F93CF93DF93CDB7DEB76A970D
:10041000CDBFDEBF8A8B9B8B6C8B7D8B4E8B2F8BE6
:10042000388F098F1A8F80915021882311F080E135
:10043000D8C18C899D890E94E70A8C30910510F003
:1004400086E0CFC181E0809350218F89988D898388
:100450009A838E89882F90E08F7099278B30910531
:1004600001F18E89882F90E08F7099278230910555
:10047000C1F08E89882F90E08F709927893091057F
:1004800041F462E170E081E090E065D689839A836F
:1004900008C0898D9A8DBC0181E090E05CD689838B
:1004A0009A8389819A81009721F41092502181E1E9
:1004B00098C18A899B89FC01808191818B839C836F
:1004C0008B819C8142968D839E831F8212C08D8179
:1004D0009E81FC018681882F90E08F70992700977C
:1004E00019F481E08F8328C08D819E8142968D838F
:1004F0009E838B819C81FC01828193819C01AFE86A
:10050000B3EE1AD6929582958F7089279F708927AE
:10051000880F991F9C01220F331F220F331F220FB8
:10052000331F820F931F2B813C81280F391F8D8130
:100530009E818217930758F29F8181E08927882343
:1005400009F4ADC08B819C81FC01828193819C0167
:100550002E5E3F4F8B819C81B9013ED78B839C835C
:100560008B819C81009739F489819A81A6D610925B
:10057000502181E136C1188628C08A899B89FC01F7
:10058000208131818885882F90E0880F991F8D5AAE
:100590009E4DFC01808191812817390799F4888547
:1005A000882F90E0880F991F8D5A9E4D2B813C819A
:1005B000FC01208331838B819C812B813C81FC0158
:1005C0002483358388858F5F888788858830A8F263
:1005D0008B819C81FC01248135818B819C81FC0174
:1005E00080819181820F931F8D879E8780915121F9
:1005F00090915221019680935121909352218D85A3
:100600009E852B813C81FC01248335838B819C81D9
:10061000429689879A871FC089859A85FC018681C1
:100620008F708F878F85813089F08F85823071F050
:1006300089859A85FC0184819581888B998B88892D
:1006400099892B813C81FC012483358389859A8596
:10065000429689879A878B819C81FC018281938154
:100660009C01AFE8B3EE68D5929582958F7089278B
:100670009F708927880F991F9C01220F331F220F1B
:10068000331F220F331F820F931F2B813C81280FB2
:10069000391F89859A858217930708F4BDCF8E8903
:1006A000882F90E08F7099278930910549F58981CD
:1006B0009A812B813C81FC01248335838B819C8131
:1006C000FC012281338189819A81FC01208331835D
:1006D00089819A8122E130E0FC0122833383898180
:1006E0009A8129E0FC01268389819A819C01295FF6
:1006F0003F4F8EE29EE2A0E0F90180839183A283C6
:100700008B819C81FC01828193819C01AFE8B3EED7
:1007100013D5929582958F7089279F708927880FAE
:10072000991F9C01220F331F220F331F220F331FEB
:10073000820F931F2B813C81820F931F8B879C8795
:100740008F81882329F08D819E818B879C870DC0A6
:100750008B819C81FC01828193819C012E5E3F4FA5
:100760008B819C81FC01228333838B859C8507963A
:100770002C893D894BE050E0B90140D78B859C85A1
:100780002E89FC0126838B859C8529813A81FC0179
:10079000248335838E89882F90E08F709927893044
:1007A000910541F08E89882F90E08F7099278B30CA
:1007B000910531F48B859C85FC011282138207C060
:1007C0008B859C85298D3A8DFC01228333838A8910
:1007D0009B892B853C85FC0120833183109250211D
:1007E00080E06A96CDBFDEBFDF91CF911F910F9160
:1007F0000895CF93DF93CDB7DEB72897CDBFDEBF87
:100800008F8398878F819885FC01808191818B836C
:100810009C838B819C81FC018681882F90E080776E
:1008200099278031910559F08B819C81FC0186814B
:10083000882F90E0807799278033910541F490913B
:10084000632181E08927882311F08AE08DC08B81A4
:100850009C81FC018681882F90E08F7099278830D9
:10086000910511F487E080C08B819C81FC0184811B
:1008700095818D839E838B819C81FC018681882F4D
:1008800090E08F70992789309105D1F58D819E81F7
:10089000429689839A8311C089819A81FC0186815D
:1008A000882F90E08F709927009711F084E15CC049
:1008B00089819A81429689839A838D819E81FC01E8
:1008C000828193819C01AFE8B3EE36D492958295F4
:1008D0008F7089279F708927880F991F9C01220F8D
:1008E000331F220F331F220F331F820F931F2D81BF
:1008F0003E81280F391F89819A818217930760F200
:100900008B819C81FC018681882F90E08F709927D4
:1009100089309105B1F08B819C81FC018681882F03
:1009200090E08F7099278130910559F08B819C81DF
:10093000FC018681882F90E08F7099278330910584
:1009400019F48D819E81B9D48B819C81FC018681B3
:10095000282F207F8B819C81FC0126838B819C81A9
:10096000FC011482158280E02896CDBFDEBFDF91A6
:10097000CF910895CF93DF93CDB7DEB72997CDBF41
:10098000DEBF88879987198288859985FC018081D7
:1009900091818A839B8388859985FC0180819181DF
:1009A00042968C839D8325C0CE01049622DF8983E5
:1009B00089818823C9F08C819D81FC018481958186
:1009C0008E839F83CE010696D5DF89838981882314
:1009D00011F0898133C0CE0104960BDF89838981B0
:1009E000882311F089812AC08C819D8142968C8355
:1009F0009D838A819B81FC01828193819C01AFE868
:100A0000B3EE9AD3929582958F7089279F7089272C
:100A1000880F991F9C01220F331F220F331F220FB3
:100A2000331F820F931F2A813B81280F391F8C812E
:100A30009D818217930708F4B7CF89812996CDBF8E
:100A4000DEBFDF91CF910895CF93DF93CDB7DEB7AF
:100A50002897CDBFDEBF8D839E836F8378878D817E
:100A60009E81FC018081918189839A838D819E8101
:100A7000FC01808191818B839C8325C089819A812F
:100A80009C01295F3F4F8F8198854BE050E0B90171
:100A9000A7D5009799F489819A81FC018681882FD6
:100AA00090E08F709927009749F08D819E81298170
:100AB0003A81FC012083318380E02AC089819A81B8
:100AC000429689839A838B819C81FC0182819381E8
:100AD0009C01AFE8B3EE30D3929582958F70892751
:100AE0009F708927880F991F9C01220F331F220FA7
:100AF000331F220F331F820F931F2B813C81280F3E
:100B0000391F89819A818217930708F4B7CF85E04E
:100B10002896CDBFDEBFDF91CF910895CF92DF92AF
:100B2000EF920F931F93CF93DF93CDB7DEB7649708
:100B3000CDBFDEBF8A879B876C877D874E872F87D7
:100B4000088B198BEA8ACB8ADC8A19828C859D8571
:100B50003ED501961AD38A839B838A819B818C839D
:100B60009D832C853D858A819B81B90129D58A8504
:100B70009B85FC0180819181888799878A819B81EF
:100B80006AE471E24AD58E839F838E819F810097AC
:100B900009F063C08A819B81FC018081882309F46C
:100BA00049C02A813B81CE010896B9014DDF898376
:100BB0008981882341F4288539858A859B85FC01B4
:100BC000208331832EC08E85883019F08E85803148
:100BD00041F588859985FC018681882F90E0807792
:100BE00099278031910559F088859985FC01868186
:100BF000882F90E0807799278033910549F4909170
:100C0000632181E08927882319F08AE0898309C05C
:100C10008C819D81009719F08C819D814ED385E058
:100C2000DCC08C819D81009719F08C819D8145D31A
:100C30008981D3C08C819D81009719F08C819D8121
:100C40003CD388859985FC01248135818A859B85E3
:100C5000FC012083318380E0C0C088859985FC0138
:100C60008681882F90E08F70992781309105B1F0AF
:100C700088859985FC018681882F90E08F7099275F
:100C80008230910559F088859985FC018681882FED
:100C900090E08F7099278430910549F48C819D8173
:100CA000009719F08C819D8108D385E096C08E81D4
:100CB0009F81FC0110822A813B81CE010896B901F7
:100CC000C3DE89838981882309F463C085E0898331
:100CD0008E85883021F08E85803109F04EC0888560
:100CE0009985FC018681882F90E080779927803153
:100CF000910559F088859985FC018681882F90E0BF
:100D0000807799278033910549F49091632181E0A0
:100D10008927882319F08AE089832FC088859985DF
:100D2000FC018681882F90E08F709927893091058A
:100D3000A1F088859985FC018681882F90E08F70CD
:100D400099278830910549F08C819D81009719F091
:100D50008C819D81B2D285E040C08A89807789608C
:100D6000E82F4B895C89288939896A817B81CE018A
:100D700008968A014E2F45DB89838981882349F0B3
:100D80008C819D81009719F08C819D8196D28981FB
:100D900024C08E819F8101968A839B838885998553
:100DA000FC0184819581009749F48C819D81009795
:100DB00019F08C819D8181D289E00FC08A819B814D
:100DC000FC018081882341F088859985FC0184811C
:100DD000958188879987D2CED1CE6496CDBFDEBF6C
:100DE000DF91CF911F910F91EF90DF90CF900895F9
:100DF000CF92DF92EF920F931F93CF93DF93CDB7F4
:100E0000DEB72B97CDBFDEBF89839A836B837C834C
:100E10004D832E830F831887E986CA86DB868D81F2
:100E20008F718D838B819C81FC018081813468F17D
:100E30008B819C81FC0180818B3538F58B819C8175
:100E40000196FC0180818F3239F08B819C81019663
:100E5000FC0180818C35C9F48B819C81FC018081EF
:100E6000882F90E081549109880F991F8D5A9E4DCB
:100E7000FC012081318189819A81FC0120833183A9
:100E80008B819C8102968B839C834A855B852F8115
:100E900038856B817C8189819A816A01E984890125
:100EA0002E814D813BDE2B96CDBFDEBFDF91CF91F2
:100EB0001F910F91EF90DF90CF900895CF92DF9226
:100EC000EF920F931F93CF93DF9300D000D0CDB755
:100ED000DEB78D839E8319821A82CE010396C12CC0
:100EE000D12C6894EE24E4F800E010E020E040E02B
:100EF0006DE471E27DDF89838981882311F0898126
:100F000011C0CE01039636DD8983CE01039671DCD4
:100F10008A838A81873019F08A81882311F4898134
:100F200001C08A812696CDBFDEBFDF91CF911F9190
:100F30000F91EF90DF90CF900895CF93DF9300D083
:100F400000D0CDB7DEB78B839C836D837E838D818C
:100F50009E81880F991F8D5A9E4DFC018081918141
:100F6000009711F08EE038C062E170E081E090E01F
:100F7000F2D089839A8389819A81009711F481E163
:100F80002BC089819A8129813A81FC012483358390
:100F900089819A81FC011082118289819A8128E0DD
:100FA000FC01268389819A8122E130E0FC012283C1
:100FB000338389819A8107962B813C81B90100D3C3
:100FC0008D819E81880F991F8D5A9E4D29813A816E
:100FD000FC012083318380E02696CDBFDEBFDF9108
:100FE000CF9108950F921F922F923F924F925F924E
:100FF0006F927F928F929F92AF92BF92CF92DF9229
:10100000EF92FF920F931F932F933F934F935F9312
:101010006F937F938F939F93AF93BF93CF93DF9300
:10102000EF93FF930FB70F930CB70F930BB70F937B
:101030000AB70F9309B70F9308B70F9380916621F2
:1010400090916721FC0102811381F8012DB73EB711
:101050000193108380916421909165210196809382
:1010600064219093652180916421909165218A305B
:10107000910520F010926421109265212091642145
:1010800030916521C901880F991F820F931F880F26
:10109000991F880F991F84599E4DFC018081918171
:1010A0000097C1F22091642130916521C901880F18
:1010B000991F820F931F880F991F880F991F0296FF
:1010C0008C0106591E4D8091662190916721FC018B
:1010D00002831383F801129100813EBF2DBF0F914F
:1010E00008BF0F9109BF0F910ABF0F910BBF0F915E
:1010F0000CBF0F910FBFFF91EF91DF91CF91BF9187
:10110000AF919F918F917F916F915F914F913F919F
:101110002F911F910F91FF90EF90DF90CF90BF9094
:10112000AF909F908F907F906F905F904F903F9087
:101130002F901F900F901895A29FB001B39FC001F0
:10114000A39F700D811D1124911DB29F700D811DF3
:101150001124911D08950F931F93CF93DF93869FC2
:101160008001879F100D969F100D1124C8010DD08E
:10117000EC01009721F0A80160E070E01AD2CE01E6
:10118000DF91CF911F910F910895CF93DF9382301C
:10119000910510F482E090E0E091E421F091E521E6
:1011A00020E030E0A0E0B0E0309739F1408151819B
:1011B00048175907B8F04817590771F4828193818D
:1011C000109729F012968D939C9313972CC08093BF
:1011D000E4219093E52127C02115310531F0421714
:1011E000530718F0A901DB0101C0EF019A01BD010D
:1011F000DF010280F381E02DD7CF21153105F9F011
:10120000281B390B2430310580F48A819B816115BC
:10121000710521F0FB018283938304C08093E42154
:101220009093E521FE01329644C0FE01E20FF31FC8
:101230008193919322503109288339833AC02091B8
:10124000E2213091E321232B41F4209102203091BF
:1012500003202093E2213093E3212091002030915C
:1012600001202115310541F42DB73EB740910420EE
:1012700050910520241B350BE091E221F091E321F0
:10128000E217F307A0F42E1B3F0B2817390778F05D
:10129000AC014E5F5F4F2417350748F04E0F5F1FBC
:1012A0004093E2215093E3218193919302C0E0E0C7
:1012B000F0E0CF01DF91CF910895CF93DF930097B6
:1012C00009F487C0FC01329712821382C091E42195
:1012D000D091E521209781F420813181280F391F99
:1012E0008091E2219091E3218217930779F5E093B1
:1012F000E221F093E3216DC0DE0120E030E0AE1783
:10130000BF0750F412964D915C9113979D014115C2
:10131000510509F1DA01F3CFA283B38340815181F2
:10132000840F951F8A179B0771F48D919C911197DB
:10133000840F951F02968083918312968D919C91C4
:101340001397828393832115310529F4E093E421D7
:10135000F093E5213EC0D9011296ED93FC931397CB
:101360004D915D91A40FB51FEA17FB0779F48081B9
:101370009181840F951F0296D9018D939C931197AB
:101380008281938112968D939C931397E0E0F0E015
:101390008A819B81009719F0FE01EC01F9CFCE0103
:1013A000029628813981820F931F2091E22130918A
:1013B000E3212817390769F4309729F41092E421C2
:1013C0001092E52102C012821382C093E221D093D1
:1013D000E321DF91CF9108956F927F928F929F9238
:1013E000AF92BF92CF92DF92EF92FF920F931F9333
:1013F000CF93DF93EC01CB01209779F4DF91CF916C
:101400001F910F91FF90EF90DF90CF90BF90AF9022
:101410009F908F907F906F90B8CEFE01E60FF71FE0
:101420009E0122503109E217F30708F4A8C0D90140
:101430000D911C91119706171707B0F00530110593
:1014400008F49BC0A801445051094617570708F4F7
:1014500094C002501109061B170B019311936D9351
:101460007C93CF012ADF89C05B01A01AB10A4E012B
:10147000800E911EA091E421B091E521612C712C88
:1014800060E070E0109709F449C0A815B905C9F5E6
:10149000ED90FC901197670142E0C40ED11CCA1474
:1014A000DB0478F147018A189B08640142E0C40E0E
:1014B000D11C1296BC9012971396AC91B5E0CB1646
:1014C000D10440F0B282A38380829182D9018D93AE
:1014D0009C9309C00E5F1F4F0E0D1F1DF901008365
:1014E0001183EB2DFA2F6115710531F0DB01129696
:1014F000ED93FC93139741C0E093E421F093E52131
:101500003CC06D917C9111976616770608F43B01FB
:10151000BD0112960D90BC91A02DB4CF6091E22137
:101520007091E32168157905E9F468167906D0F41D
:1015300040910020509101204115510541F44DB7D3
:101540005EB76091042070910520461B570BE4178D
:10155000F507A8F4E093E221F093E321F9018083F9
:1015600091830BC012DE7C01009749F0A801BE01F7
:1015700017D0CE01A2DEC70104C0CE0102C080E0B8
:1015800090E0DF91CF911F910F91FF90EF90DF904E
:10159000CF90BF90AF909F908F907F906F90089565
:1015A000FB01DC0102C001900D9241505040D8F780
:1015B0000895DC0101C06D9341505040E0F708955B
:1015C000FB01DC0101900D920020E1F70895FC0180
:1015D00001900020E9F7809590958E0F9F1F089548
:1015E000FB01DC014150504030F08D910190801999
:1015F00019F40020B9F7881B990B0895FB01DC0151
:101600004150504048F001900D920020C9F701C0B0
:101610001D9241505040E0F70895DC0199278D91CB
:10162000882341F0FB01019008160110E1F7B9F79A
:0A1630001197CD010895F894FFCF43
:10163A000000E621200066735F3100412F73616C60
:10164A0075742F00412F73616C7574312F00412F0F
:10165A0073616C7574322F00412F73616C7574332A
:10166A002F00412F73616C7574322F696E73616C30
:10167A007574322F00412F73616C7574332F696E44
:10168A0073616C7574332F00412F73616C757433F9
:10169A002F696E73616C7574342F00412F73616CFE
:1016AA007574332F696E73616C7574332F696E7339
:1016BA00616C757433332F00412F73616C75743309
:1016CA002F696E73616C7574342F696E73616C75F2
:1016DA00743334302F00412F73616C7574332F6962
:1016EA006E73616C7574342F696E73616C757433C3
:1016FA0034312F00412F73616C7574332F696E7307
:10170A00616C7574342F66696C653100412F7361A1
:10171A006C7574332F696E73616C7574342F706FC6
:10172A0072745F7374723100412F73616C75743314
:10173A002F696E73616C7574342F706F72745F7376
:10174A0074723200412F73616C7574332F696E7332
:10175A00616C7574342F706F72745F7374723300B6
:10176A00412F73616C7574332F696E73616C757474
:10177A00342F6C696E6B00412F002F5C00412F00E3
:00000001FF
