:10000000FDC0000020C100001EC100001CC1000096
:100010001AC1000018C1000016C1000014C1000080
:1000200012C1000010C100000EC100000CC1000090
:100030000AC1000008C1000006C1000004C10000A0
:100040000C94850800C10000FEC00000FCC0000048
:10005000FAC00000F8C00000F6C00000F4C00000C4
:10006000F2C00000F0C00000EEC00000ECC00000D4
:10007000EAC00000E8C00000E6C00000E4C00000E4
:10008000E2C00000E0C00000DEC00000DCC00000F4
:10009000DAC00000D8C00000D6C00000D4C0000004
:1000A000D2C00000D0C00000CEC00000CCC0000014
:1000B000CAC00000C8C00000C6C00000C4C0000024
:1000C000C2C00000C0C00000BEC00000BCC0000034
:1000D000BAC00000B8C00000B6C00000B4C0000044
:1000E000B2C00000B0C00000AEC00000ACC0000054
:1000F000AAC00000A8C00000A6C00000A4C0000064
:10010000A2C00000A0C000009EC000009CC0000073
:100110009AC0000098C0000096C0000094C0000083
:1001200092C0000090C000008EC000008CC0000093
:100130008AC0000088C0000086C0000084C00000A3
:1001400082C0000080C000007EC000007CC00000B3
:100150007AC0000078C0000076C0000074C00000C3
:1001600072C0000070C000006EC000006CC00000D3
:100170006AC0000068C0000066C0000064C00000E3
:1001800062C0000060C000005EC000005CC00000F3
:100190005AC0000058C0000056C0000054C0000003
:1001A00052C0000050C000004EC000004CC0000013
:1001B0004AC0000048C0000046C0000044C0000023
:1001C00042C0000040C000003EC000003CC0000033
:1001D0003AC0000038C0000036C0000034C0000043
:1001E00032C0000030C000002EC000002CC0000053
:1001F0002AC0000028C0000026C0000011241FBE35
:10020000CFEFCDBFDFE3DEBF00E00CBF18BE19BEED
:100210001ABE1BBE11E2A0E0B0E2E0E6F7E100E0AA
:100220000BBF02C007900D92A035B107D9F71BBED6
:1002300021E2A0E5B1E201C01D92A63EB207E1F7BE
:1002400003D00C94AE0BDCCECF92DF92EF920F93E3
:100250001F93CF93DF931F921F92CDB7DEB7CAD003
:1002600060E070E086E090E2F3D6C12CD12CE12C66
:1002700000E010E029E048E06BE070E2CE0101967A
:1002800042D6C12CD12CE12C00E010E029E048E05E
:1002900064E170E2CE01019636D6C12CD12CE12C5E
:1002A00000E010E029E048E06EE170E2CE01019646
:1002B0002AD6C12CD12CE12C00E010E029E048E046
:1002C00068E270E2CE0101961ED6C12CD12CE12C41
:1002D00000E010E029E048E062E370E2CE01019620
:1002E00012D6C12CD12CE12C00E010E029E048E02E
:1002F00065E470E2CE01019606D6C12CD12CE12C2A
:1003000000E010E029E048E068E570E2CE010196E7
:10031000FAD5C12CD12CE12C00E010E029E048E016
:100320006BE670E2CE010196EED5C12CD12CE12C0A
:1003300000E010E029E048E068E870E2CE010196B4
:10034000E2D5C12CD12CE12C00E010E029E048E0FE
:1003500066EA70E2CE010196D6D50F2EF2E3CF2EDB
:10036000D12CF02DE12C00E010E021E048E064EC1D
:1003700070E2CE010196C7D50F2EF8E1CF2ED12C19
:10038000F02DE12C00E016E022E048E06CED70E298
:10039000CE010196B8D50F2EF8E1CF2ED12CF02D3D
:1003A000E12C00E016E022E048E068EF70E2CE01C8
:1003B0000196A9D50F2EF8E1CF2ED12CF02DE12CEE
:1003C00000E016E022E048E064E171E2CE0101962F
:1003D0009AD5C12CD12CE12C00E216E02BE048E0AC
:1003E00060E371E2CE0101968ED587E491E2F1D50A
:1003F000A895FECFCF93DF93CDB7DEB7DF91CF9136
:1004000008950F931F93CF93DF93CDB7DEB76C970B
:10041000CDBFDEBF8C8B9D8B6E8B7F8B488F298FE2
:100420003A8F0B8F1C8F8E899F890E947A0B8C309C
:10043000910510F086E0FCC180915021882311F0D5
:1004400080E1F6C181E080935021898D9A8D898366
:100450009A83888D882F90E08F7099278B30910533
:1004600001F1888D882F90E08F7099278230910557
:10047000C1F0888D882F90E08F7099278930910581
:1004800041F462E170E081E090E0F8D689839A83DC
:1004900008C08B8D9C8DBC0181E090E0EFD68983F4
:1004A0009A8389819A81009721F41092502181E1E9
:1004B000BFC18C899D89FC01808191818B839C8344
:1004C0008B819C8142968D839E831F8212C08D8179
:1004D0009E81FC018681882F90E08F70992700977C
:1004E00019F481E08F8328C08D819E8142968D838F
:1004F0009E838B819C81FC01828193819C01AFE86A
:10050000B3EEADD6929582958F7089279F7089271B
:10051000880F991F9C01220F331F220F331F220FB8
:10052000331F820F931F2B813C81280F391F8D8130
:100530009E818217930758F29F8181E08927882343
:1005400009F4C4C08B819C818D879E878B819C819F
:10055000FC01828193819C012E5E3F4F8B819C81A7
:10056000B901CDD78B839C832D853E858B819C8162
:100570002817390761F08B819C81FC01228133812E
:100580008D859E85A90160E070E00E946C0B8B81D7
:100590009C81009739F489819A8122D71092502149
:1005A00081E146C1188628C08C899D89FC01208183
:1005B00031818885882F90E0880F991F8D5A9E4D34
:1005C000FC01808191812817390799F48885882F4B
:1005D00090E0880F991F8D5A9E4D2B813C81FC0124
:1005E000208331838B819C812B813C81FC0124837E
:1005F000358388858F5F888788858830A8F28B81CE
:100600009C81FC01248135818B819C81FC0180814E
:100610009181820F931F8F87988B809151219091A8
:100620005221019680935121909352218F85988970
:100630002B813C81FC01248335838B819C814296F4
:1006400089879A871FC089859A85FC0186818F706A
:10065000898B8989813089F08989823071F0898517
:100660009A85FC01848195818A8B9B8B8A899B89E1
:100670002B813C81FC012483358389859A854296B0
:1006800089879A878B819C81FC01828193819C015F
:10069000AFE8B3EEE4D5929582958F7089279F706D
:1006A0008927880F991F9C01220F331F220F331FA8
:1006B000220F331F820F931F2B813C81280F391F7C
:1006C00089859A858217930708F4BDCF888D882F76
:1006D00090E08F7099278930910589F589819A81F9
:1006E0002B813C81FC01248335838B819C81FC011F
:1006F0002281338189819A81FC0120833183898120
:100700009A8122E130E0FC012283338389819A813E
:1007100029E0FC01268389819A8107964BE050E00D
:1007200060E070E0D9D789819A819C01295F3F4FB1
:100730008EE29EE2A0E0F90180839183A2838B8107
:100740009C81FC01828193819C01AFE8B3EE87D547
:10075000929582958F7089279F708927880F991F9E
:100760009C01220F331F220F331F220F331F820FD2
:10077000931F2B813C81820F931F8B879C878F81D6
:10078000882329F08D819E818B879C870DC08B816A
:100790009C81FC01828193819C012E5E3F4F8B8165
:1007A0009C81FC01228333838B859C8507964BE0DB
:1007B00050E060E070E090D78B859C8507962E898D
:1007C0003F894BE050E0B901ACD78B859C85288DE3
:1007D000FC0126838B859C8529813A81FC01248339
:1007E0003583888D882F90E08F7099278930910507
:1007F00041F0888D882F90E08F7099278B3091057C
:1008000031F48B859C85FC011282138207C08B8595
:100810009C852B8D3C8DFC01228333838C899D89A3
:100820002B853C85FC01208331831092502180E090
:100830006C96CDBFDEBFDF91CF911F910F910895D0
:10084000CF93DF93CDB7DEB72897CDBFDEBF8F83C1
:1008500098878F819885FC01808191818B839C830F
:100860008B819C81FC018681882F90E0807799277D
:100870008031910559F08B819C81FC018681882F04
:1008800090E0807799278033910541F4909163211E
:1008900081E08927882311F08AE08EC08B819C81BA
:1008A000FC01848195818D839E838B819C81FC01D9
:1008B0008681882F90E08F70992789309105D1F536
:1008C0008D819E81429689839A8311C089819A8104
:1008D000FC018681882F90E08F709927009711F096
:1008E00084E16AC089819A81429689839A838D8145
:1008F0009E81FC01828193819C01AFE8B3EEAFD46D
:10090000929582958F7089279F708927880F991FEC
:100910009C01220F331F220F331F220F331F820F20
:10092000931F2D813E81280F391F89819A8182175B
:10093000930760F28B819C81FC018681882F90E077
:100940008F7099278930910509F18B819C81FC0179
:100950008681882F90E08F70992781309105B1F0C2
:100960008B819C81FC018681882F90E08F70992774
:100970008330910559F08B819C81FC018681882F01
:1009800090E08F7099278830910571F48D819E8158
:10099000FC01228133818D819E81A90160E070E09C
:1009A0009BD68D819E811CD58B819C8142E150E03C
:1009B00060E070E091D680E02896CDBFDEBFDF9189
:1009C000CF910895CF93DF93CDB7DEB72997CDBFF1
:1009D000DEBF88879987198288859985FC01808187
:1009E00091818A839B8388859985FC01808191818F
:1009F00042968C839D8325C0CE01049621DF898396
:100A000089818823C9F08C819D81FC018481958135
:100A10008E839F83CE010696D5DF898389818823C3
:100A200011F0898133C0CE0104960ADF8983898160
:100A3000882311F089812AC08C819D8142968C8304
:100A40009D838A819B81FC01828193819C01AFE817
:100A5000B3EE05D4929582958F7089279F70892770
:100A6000880F991F9C01220F331F220F331F220F63
:100A7000331F820F931F2A813B81280F391F8C81DE
:100A80009D818217930708F4B7CF89812996CDBF3E
:100A9000DEBFDF91CF910895CF93DF93CDB7DEB75F
:100AA0002897CDBFDEBF8D839E836F8378878D812E
:100AB0009E81FC018081918189839A838D819E81B1
:100AC000FC01808191818B839C8325C089819A81DF
:100AD0009C01295F3F4F8F8198854BE050E0B90121
:100AE00012D6009799F489819A81FC018681882F1A
:100AF00090E08F709927009749F08D819E81298120
:100B00003A81FC012083318380E02AC089819A8167
:100B1000429689839A838B819C81FC018281938197
:100B20009C01AFE8B3EE9BD3929582958F70892795
:100B30009F708927880F991F9C01220F331F220F56
:100B4000331F220F331F820F931F2B813C81280FED
:100B5000391F89819A818217930708F4B7CF85E0FE
:100B60002896CDBFDEBFDF91CF910895CF92DF925F
:100B7000EF920F931F93CF93DF93CDB7DEB76697B6
:100B8000CDBFDEBF8C879D876E877F87488B298B83
:100B90000A8B1B8BEC8ACD8ADE8A19828E859F8513
:100BA000A9D5019685D38A839B838A819B818C8377
:100BB0009D832E853F858A819B81B90194D58C8147
:100BC0009D8198D58E839F838C859D85FC01808136
:100BD00091818A879B878A819B816AE471E2B0D583
:100BE0008887998788859985009709F0A1C08A81AF
:100BF0009B81FC018081882309F47FC02A813B818D
:100C0000CE010A96B90148DF89838981882341F49E
:100C10002A853B858C859D85FC01208331835CC0C2
:100C20008889883021F08889803109F055C08A850B
:100C30009B85FC018681882F90E080779927803101
:100C4000910559F08A859B85FC018681882F90E06B
:100C5000807799278033910549F49091632181E051
:100C60008927882319F08AE0898336C08A859B8585
:100C7000FC018681882F90E08F709927893091053B
:100C800089F08C819D81009759F02E813F818C8164
:100C90009D81A90160E070E01FD58C819D81A0D36A
:100CA00085E026C18989982F9F708C898077892B50
:100CB000E82F4D895E892A893B896A817B81CE0133
:100CC0000A968A014E2F9DDB89832A853B858C8578
:100CD0009D85FC01208331838C819D81009759F093
:100CE0002E813F818C819D81A90160E070E0F4D468
:100CF0008C819D8175D38981FBC08C819D810097FA
:100D000059F02E813F818C819D81A90160E070E0C6
:100D1000E3D48C819D8164D38A859B85FC012481E9
:100D200035818C859D85FC012083318380E0E0C086
:100D30008A859B85FC018681882F90E08F7099279A
:100D400081309105B1F08A859B85FC018681882FD1
:100D500090E08F7099278230910559F08A859B85A4
:100D6000FC018681882F90E08F709927843091054F
:100D700089F48C819D81009759F02E813F818C816F
:100D80009D81A90160E070E0A7D48C819D8128D36A
:100D900085E0AEC088859985FC0110822A813B815F
:100DA000CE010A96B90178DE89838981882309F406
:100DB00073C085E089838889883021F088898031F3
:100DC00009F056C08A859B85FC018681882F90E0BA
:100DD000807799278031910559F08A859B85FC01A0
:100DE0008681882F90E0807799278033910549F498
:100DF0009091632181E08927882319F08AE0898313
:100E000037C08A859B85FC018681882F90E08F7092
:100E1000992789309105E1F08A859B85FC018681BF
:100E2000882F90E08F7099278830910589F08C8108
:100E30009D81009759F02E813F818C819D81A90170
:100E400060E070E049D48C819D81CAD285E050C0B9
:100E50008C8980778960E82F4D895E892A893B8952
:100E60006A817B81CE010A968A014E2FCADA898374
:100E70008981882389F08C819D81009759F02E818A
:100E80003F818C819D81A90160E070E025D48C8137
:100E90009D81A6D289812CC08885998501968A83F7
:100EA0009B838A859B85FC0184819581009789F4C9
:100EB0008C819D81009759F02E813F818C819D818D
:100EC000A90160E070E008D48C819D8189D289E01D
:100ED0000FC08A819B81FC018081882341F08A8533
:100EE0009B85FC01848195818A879B8774CE73CE14
:100EF0006696CDBFDEBFDF91CF911F910F91EF902E
:100F0000DF90CF900895CF92DF92EF920F931F93CF
:100F1000CF93DF93CDB7DEB72B97CDBFDEBF8983ED
:100F20009A836B837C834D832E830F831887E98696
:100F3000CA86DB868D818F718D838B819C81FC01BC
:100F40008081813468F18B819C81FC0180818B35AB
:100F500038F58B819C810196FC0180818F3239F0BC
:100F60008B819C810196FC0180818C35C9F48B8139
:100F70009C81FC018081882F90E081549109880F29
:100F8000991F8D5A9E4DFC012081318189819A8162
:100F9000FC01208331838B819C8102968B839C830F
:100FA0004A855B852F8138856B817C8189819A8117
:100FB0006A01E98489012E814D81D8DD2B96CDBF50
:100FC000DEBFDF91CF911F910F91EF90DF90CF9017
:100FD0000895CF92DF92EF920F931F93CF93DF93F9
:100FE00000D000D0CDB7DEB78D839E8319821A82E0
:100FF000CE010396C12CD12C6894EE24E4F800E0D5
:1010000010E020E040E06DE471E27DDF89838981BA
:10101000882311F0898111C0CE010396D3DC898326
:10102000CE0103960DDC8A838A81873019F08A818C
:10103000882311F4898101C08A812696CDBFDEBF45
:10104000DF91CF911F910F91EF90DF90CF90089596
:10105000CF93DF9300D000D0CDB7DEB78B839C83D6
:101060006D837E838D819E81880F991F8D5A9E4D41
:10107000FC0180819181009711F08EE040C062E117
:1010800070E081E090E0FAD089839A8389819A8127
:10109000009711F481E133C089819A8129813A81D5
:1010A000FC012483358389819A81FC01108211829D
:1010B00089819A8128E0FC01268389819A8122E135
:1010C00030E0FC012283338389819A8107964BE0CB
:1010D00050E060E070E000D389819A8107962B810F
:1010E0003C81B90100D38D819E81880F991F8D5A53
:1010F0009E4D29813A81FC012083318380E0269630
:10110000CDBFDEBFDF91CF9108950F921F922F9236
:101110003F924F925F926F927F928F929F92AF9287
:10112000BF92CF92DF92EF92FF920F931F932F9374
:101130003F934F935F936F937F938F939F93AF935F
:10114000BF93CF93DF93EF93FF930FB70F930CB73A
:101150000F930BB70F930AB70F9309B70F9308B705
:101160000F938091662190916721FC010281138188
:10117000F8012DB73EB701931083809164219091BF
:10118000652101968093642190936521809164216B
:10119000909165218A30910520F01092642110927F
:1011A00065212091642130916521C901880F991F23
:1011B000820F931F880F991F880F991F84599E4D86
:1011C000FC01808191810097C1F2209164213091CE
:1011D0006521C901880F991F820F931F880F991FDE
:1011E000880F991F02968C0106591E4D8091662129
:1011F00090916721FC0102831383F8011291008111
:101200003EBF2DBF0F9108BF0F9109BF0F910ABFBD
:101210000F910BBF0F910CBF0F910FBFFF91EF917B
:10122000DF91CF91BF91AF919F918F917F916F91FE
:101230005F914F913F912F911F910F91FF90EF90F0
:10124000DF90CF90BF90AF909F908F907F906F90E6
:101250005F904F903F902F901F900F901895A29FF6
:10126000B001B39FC001A39F700D811D1124911D7A
:10127000B29F700D811D1124911D08950F931F932E
:10128000CF93DF93869F8001879F100D969F100D4F
:101290001124C8010DD0EC01009721F0A80160E0F5
:1012A00070E01AD2CE01DF91CF911F910F91089576
:1012B000CF93DF938230910510F482E090E0E091CB
:1012C000E421F091E52120E030E0A0E0B0E03097AB
:1012D00039F14081518148175907B8F0481759072B
:1012E00071F482819381109729F012968D939C93CB
:1012F00013972CC08093E4219093E52127C02115FA
:10130000310531F04217530718F0A901DB0101C084
:10131000EF019A01BD01DF010280F381E02DD7CFFB
:1013200021153105F9F0281B390B2430310580F4E3
:101330008A819B816115710521F0FB018283938372
:1013400004C08093E4219093E521FE01329644C0CD
:10135000FE01E20FF31F81939193225031092883FC
:1013600039833AC02091E2213091E321232B41F4CB
:1013700020910220309103202093E2213093E32139
:1013800020910020309101202115310541F42DB725
:101390003EB74091042050910520241B350BE0916D
:1013A000E221F091E321E217F307A0F42E1B3F0B9B
:1013B0002817390778F0AC014E5F5F4F24173507C7
:1013C00048F04E0F5F1F4093E2215093E321819339
:1013D000919302C0E0E0F0E0CF01DF91CF9108955A
:1013E000CF93DF93009709F487C0FC0132971282F4
:1013F0001382C091E421D091E521209781F42081CE
:101400003181280F391F8091E2219091E3218217C9
:10141000930779F5E093E221F093E3216DC0DE01BB
:1014200020E030E0AE17BF0750F412964D915C916A
:1014300013979D014115510509F1DA01F3CFA283FC
:10144000B38340815181840F951F8A179B0771F4E4
:101450008D919C911197840F951F029680839183A3
:1014600012968D919C911397828393832115310558
:1014700029F4E093E421F093E5213EC0D9011296CE
:10148000ED93FC9313974D915D91A40FB51FEA174F
:10149000FB0779F480819181840F951F0296D90111
:1014A0008D939C9311978281938112968D939C9337
:1014B0001397E0E0F0E08A819B81009719F0FE012C
:1014C000EC01F9CFCE01029628813981820F931F5A
:1014D0002091E2213091E3212817390769F43097F0
:1014E00029F41092E4211092E52102C012821382A5
:1014F000C093E221D093E321DF91CF9108956F92C1
:101500007F928F929F92AF92BF92CF92DF92EF9293
:10151000FF920F931F93CF93DF93EC01CB012097A2
:1015200079F4DF91CF911F910F91FF90EF90DF90B1
:10153000CF90BF90AF909F908F907F906F90B8CEDC
:10154000FE01E60FF71F9E0122503109E217F30753
:1015500008F4A8C0D9010D911C911197061717071F
:10156000B0F00530110508F49BC0A80144505109A2
:101570004617570708F494C002501109061B170BB1
:10158000019311936D937C93CF012ADF89C05B0196
:10159000A01AB10A4E01800E911EA091E421B091D3
:1015A000E521612C712C60E070E0109709F449C0CE
:1015B000A815B905C9F5ED90FC901197670142E0B7
:1015C000C40ED11CCA14DB0478F147018A189B08A9
:1015D000640142E0C40ED11C1296BC90129713967F
:1015E000AC91B5E0CB16D10440F0B282A3838082E7
:1015F0009182D9018D939C9309C00E5F1F4F0E0DF0
:101600001F1DF90100831183EB2DFA2F6115710560
:1016100031F0DB011296ED93FC93139741C0E093F8
:10162000E421F093E5213CC06D917C911197661601
:10163000770608F43B01BD0112960D90BC91A02DD8
:10164000B4CF6091E2217091E32168157905E9F446
:1016500068167906D0F44091002050910120411580
:10166000510541F44DB75EB760910420709105209B
:10167000461B570BE417F507A8F4E093E221F0931B
:10168000E321F901808391830BC012DE7C01009776
:1016900049F0A801BE0117D0CE01A2DEC70104C0E7
:1016A000CE0102C080E090E0DF91CF911F910F91B9
:1016B000FF90EF90DF90CF90BF90AF909F908F9072
:1016C0007F906F900895FB01DC0102C001900D92A4
:1016D00041505040D8F70895DC0101C06D9341504E
:1016E0005040E0F70895FB01DC0101900D920020CD
:1016F000E1F70895FC0101900020E9F780959095AD
:101700008E0F9F1F0895FB01DC014150504030F0C7
:101710008D910190801919F40020B9F7881B990B5D
:101720000895FB01DC014150504048F001900D92BA
:101730000020C9F701C01D9241505040E0F70895C4
:10174000DC0199278D91882341F0FB010190081657
:101750000110E1F7B9F71197CD010895F894FFCF83
:101760000000E621200066735F3100412F73616C39
:1017700075742F00412F73616C7574312F00412FE8
:1017800073616C7574322F00412F73616C75743303
:101790002F00412F73616C7574322F696E73616C09
:1017A0007574322F00412F73616C7574332F696E1D
:1017B00073616C7574332F00412F73616C757433D2
:1017C0002F696E73616C7574342F00412F73616CD7
:1017D0007574332F696E73616C7574332F696E7312
:1017E000616C757433332F00412F73616C757433E2
:1017F0002F696E73616C7574342F696E73616C75CB
:10180000743334302F00412F73616C7574332F693A
:101810006E73616C7574342F696E73616C7574339B
:1018200034312F00412F73616C7574332F696E73DF
:10183000616C7574342F66696C653100412F73617A
:101840006C7574332F696E73616C7574342F706F9F
:1018500072745F7374723100412F73616C757433ED
:101860002F696E73616C7574342F706F72745F734F
:1018700074723200412F73616C7574332F696E730B
:10188000616C7574342F706F72745F73747233008F
:10189000412F73616C7574332F696E73616C75744D
:1018A000342F6C696E6B00412F002F5C00412F00BC
:00000001FF
